:1000000018C032C031C030C02FC02EC007C52CC0B0
:100010002BC0AFC629C0DDC527C026C024C524C05B
:1000200023C022C021C052584D6F64756C312E32EE
:10003000000011241FBECFE5D4E0DEBFCDBF10E02D
:10004000A0E6B0E0E6E7F5E102C005900D92A43924
:10005000B107D9F712E0A4E9B0E001C01D92A531C3
:10006000B107E1F71BD585CACBCF1F93182F9DD2BF
:100070008EEEB4D2882371F0812FB0D2882351F054
:1000800094D28FEEABD2882329F080E0DDD2182FF6
:1000900096D201C010E0812F1F910895FF920F9317
:1000A0001F93F82EE2DF182F00E08F2D8F5FDDDF2A
:1000B000080F111DC8011F910F91FF900895EF9235
:1000C000FF920F931F9386EFE9DFA0E0B0E020914D
:1000D000A8003091A90040E050E0821B930BA40BD4
:1000E000B50B2091A6003091A70040E050E0BC0184
:1000F000CD0115D87B018C013FE015950795F7944C
:10010000E7943A95D1F76091A0007091A1008827FB
:1001100077FD8095982F2BE0660F771F881F991F1A
:100120002A95D1F72091A2003091A300442737FDF2
:100130004095542F2E0D3F1D401F511F45D888E07C
:1001400090E0A0E0B0E0E80EF91E0A1F1B1F2E0D84
:100150003F1D401F511F84E05595479537952795C2
:100160008A95D1F7C9011F910F91FF90EF900895E3
:100170008AEA94DF90939500809394008CEA8EDF56
:1001800090939700809396008EEA88DF9093990071
:100190008093980080EB82DF9093A5008093A40069
:1001A00082EB7CDF9093A7008093A60084EB76DF40
:1001B0009093A9008093A80086EB70DF90939B003A
:1001C00080939A0088EB6ADF90939D0080939C0057
:1001D0008AEB64DF90939F0080939E008CEB5EDF40
:1001E0009093A1008093A0008EEB58DF9093A30022
:1001F0008093A20008952F923F924F925F926F9248
:100200007F928F929F92AF92BF92CF92DF92EF92A6
:10021000FF920F931F93DF93CF9300D000D0CDB701
:10022000DEB786EF3BDF7C0186EF38DF3C018824B8
:100230009924982C872C762C662488EF16DF90E082
:10024000A0E0B0E0682A792A8A2A9B2A00E010E020
:100250008091A8009091A900A0E0B0E0E81AF90A06
:100260000A0B1B0B2091A6003091A70040E050E044
:10027000C801B70154D77B018C018FE01595079514
:10028000F794E7948A95D1F76091A0007091A1004E
:10029000882777FD8095982FBBE0660F771F881F12
:1002A000991FBA95D1F72091A2003091A30044275D
:1002B00037FD4095542F2E0D3F1D401F511F84D7F1
:1002C00059016A0180E690EFAFEFBFEFE80EF91E2B
:1002D0000A1F1B1FAE0CBF1CC01ED11EC601B501DC
:1002E000A60195011CD71B012C01ACE05594479445
:1002F00037942794AA95D1F72091980030919900CE
:10030000442737FD4095542FC601B50108D77B011E
:100310008C01FDE015950795F794E794FA95D1F7D0
:1003200082E090E0A0E0B0E0E80EF91E0A1F1B1F7B
:1003300020919A0030919B00442737FD4095542F1F
:10034000C201B101ECD6BC01992777FD9095892FA8
:10035000E60EF71E081F191F72E015950795F79412
:10036000E7947A95D1F780E090E8A0E0B0E0E80E5D
:10037000F91E0A1F1B1F2091A4003091A50040E028
:1003800050E0C801B701CBD6DC01CB016FE0B695D8
:10039000A795979587956A95D1F789839A83AB83BB
:1003A000BC8355E096948794779467945A95D1F7D7
:1003B0002091960030919700442737FD4095542FA7
:1003C000C601B501ACD67B018C014BE015950795B4
:1003D000F794E7944A95D1F7809194009091950015
:1003E000AA2797FDA095BA2F32E0880F991FAA1F60
:1003F000BB1F3A95D1F7E80EF91E0A1F1B1F20916B
:100400009C0030919D00442737FD4095542FC20138
:10041000B10185D62BE095958795779567952A95B7
:10042000D1F7E60EF71E081F191FEE0CFF1C001F68
:10043000111F6E187F08800A910AC401B3012AE6D1
:1004400038E140E050E06BD697FD0EC0660F771F95
:10045000881F991F29813A814B815C8193D6C901FC
:10046000DA015C016D010BC029813A814B815C810D
:1004700089D659016A01AA0CBB1CCC1CDD1C55276E
:10048000D7FC5A954D2D3C2D2B2DCA01B90147D6CD
:100490002EED3BE040E050E042D67B018C01C601EE
:1004A000B50123E433EE4FEF5FEF39D69C015527BA
:1004B00037FD5095452F2153314F4F4F5F4F7801F6
:1004C0001127F7FC1095012F2E0D3F1D401F511FC6
:1004D00064E055954795379527956A95D1F72A0D8C
:1004E0003B1D4C1D5D1DB901CA010F900F900F906F
:1004F0000F90CF91DF911F910F91FF90EF90DF90C0
:10050000CF90BF90AF909F908F907F906F905F90B3
:100510004F903F902F9008950F931F93182F062F01
:1005200044D08EEE5BD0882359F0812F57D088239A
:1005300039F0802F53D0882319F041D081E001C0D9
:1005400080E01F910F91089584EF64E3E5DF089543
:1005500084EF6EE2E1DF0895DC0120E040E050E04E
:1005600098E115C0FD01E40FF51FE08138E08E2F02
:100570008227F82FF17080FD29272695F13009F4A4
:100580002068315011F0E695F2CF4F5F5F4F46176C
:10059000570741F7822F089588B3887088BB88B3C6
:1005A000807188BBBB98BC980895BC9885E090E0AA
:1005B000FC013197F1F7BB9A0197F1F70895BB9AC7
:1005C00085E090E0FC013197F1F7BC98E3E0F0E0C2
:1005D0003197F1F7BB980197F1F7089590E043E068
:1005E00050E025E030E0BC9AFA013197F1F787FF3F
:1005F00002C0BB9801C0BB9AF9013197F1F7BC98D2
:10060000F9013197F1F7B49BFECF9F5F983011F05D
:10061000880FE9CFBC9A83E090E00197F1F7BB988F
:1006200025E030E0C9010197F1F7BC98C9010197B5
:10063000F1F786B3BC9AF9013197F1F78695869563
:100640008695809581700895582F40E020E030E035
:1006500065E070E0E0E8F0E0BC9ACB010197F1F7CB
:10066000BC98CB010197F1F7B49BFECFB39B08C0B8
:10067000CF01022E02C0959587950A94E2F7482B88
:100680002F5F3F4F2830310539F7BC9A83E090E067
:100690000197F1F7552311F0BB9A01C0BB9885E093
:1006A00090E0FC013197F1F7BC98FC013197F1F72C
:1006B000BC9A0197F1F7842F0895AF92BF92CF9221
:1006C000DF92EF92FF920F931F93DF93CF93CDB7FB
:1006D000DEB729970FB6F894DEBF0FBECDBF6C0111
:1006E0005B01C9D08EEBB60193D18E010F5F1F4F16
:1006F000AAE0EA2EF12CEC0EFD1E1ED1F80181932A
:100700008F01EE15FF05C9F7CE01019669E070E093
:1007100023DF882309F463C083E050C0F095E1959E
:10072000FF4FA1E0683211F0623289F48D8190E0D0
:10073000807690708032910539F08034910531F0E7
:10074000892B29F4E87F03C0EC7F01C0EE7F9F0175
:100750002F70307080E892E0289FA001299F500DF3
:10076000389F500D1124AA2311F440505E4F9F0171
:10077000F4E036952795FA95E1F7452F55274695EC
:100780004695C90173E0880F991F7A95E1F7220F0A
:10079000331F820F931F480F591FAA2319F050953A
:1007A00041955F4FCA018A5D9D4F8950974010F077
:1007B00040ED57E0F5015183408380E029960FB664
:1007C000F894DEBF0FBECDBFCF91DF911F910F9187
:1007D000FF90EF90DF90CF90BF90AF900895F6011B
:1007E00060819A8180E02981E22FF0E0E82BF92BEB
:1007F000F7FD94CFA0E096CF1F93CF93DF93182FF0
:10080000EB0139D030D0882311F482E00AC01130D6
:1008100021F084E4BE01FFD003C084E4BE01F8D01F
:1008200080E0DF91CF911F9108950F931F93CF9395
:10083000DF938C01EB01F8018081BE0180D0F801CB
:10084000808381508D3F10F081E008C0888188321C
:1008500021F0803111F0823271F780E0DF91CF9189
:100860001F910F91089586B381700895C09AB89A28
:100870000895B8980895C098B89A84E793E00197CE
:10088000F1F78FB7F894B898C09A9DE99A95F1F767
:1008900026B38FBF8EEF92E00197F1F7B09902C0B7
:1008A00081E00895822F817008952FB7F894C09841
:1008B000B89A94E09A95F1F7882311F0B898C09A05
:1008C0009FE19A95F1F7B09B80E099E69A95F1F750
:1008D000C09AB898662311F0C09AB89A2FBF98E1D1
:1008E0009A95F1F70895817060E0DFDF08950F9326
:1008F0001F93182F08E0812F8170F5DF1695811165
:1009000010680150C1F7812F1F910F9108950F9327
:100910001F93182F08E0812F8170013011F060E0E3
:1009200001C061E0C2DF169581111068015099F78E
:10093000812F1F910F9108958FEFD9DF0895DF92D6
:10094000EF92FF920F931F93CF93DF93E82EEB016B
:1009500092DF882381F580EFCADF80E4FF24182F1F
:1009600098EFD92ED80E81E0BEDF082F81E0BBDFE3
:10097000882329F0002371F08EEFF82E1EC000238B
:1009800049F41E1528F0888180FF04C0E11611F09B
:10099000F12E01E0802FA7DF8881869588830023D0
:1009A00011F08068888311501D15E9F6112329F094
:1009B0002196812FD4CFFF24FA948F2DDF91CF91F0
:1009C0001F910F91FF90EF90DF900895FF920F938A
:1009D0001F93CF93DF93082FEB01F42E4CDF20976A
:1009E00041F085E584DF18E0899181DF1150E1F75E
:1009F00002C08CEC7CDFFF2019F0802F88DF02C062
:100A0000802F75DFDF91CF911F910F91FF90089597
:100A100040E0DCDF089541E0D9DF08951F920F9296
:100A20000FB60F9211248F939F93AF93BF93809132
:100A3000BE009091BF00A091C000B091C10001968E
:100A4000A11DB11D8093BE009093BF00A093C00074
:100A5000B093C100BF91AF919F918F910F900FBE46
:100A60000F901F9018951F920F920FB60F9211249E
:100A70008F93EF93FF9384B185B1E091F600F0E09E
:100A8000EE0FFF1FE651FF4F10828183FF91EF9120
:100A90008F910F900FBE0F901F9018958F929F927D
:100AA000AF92BF92CF92DF92FF920F931F93DF938B
:100AB000CF93CDB7DEB729970FB6F894DEBF0FBE40
:100AC000CDBF8DEC9CE19BBD8ABD89B7806189BF9C
:100AD00089E08EBD89B7816089BF85E083BF8FE2E1
:100AE00090E0E4D204B603FE03C080E690E002C0CA
:100AF0008AE690E0E9D2BFDE8FEF898300E010E064
:100B000022E0C22ED12CCC0EDD1E4E010894811C99
:100B1000911C9AE0A92EB12CAC0EBD1E18C0C401C8
:100B2000B60183DE89818F3FC9F08E3FB9F0D601CF
:100B3000F80183E0EE0FFF1F8A95E1F7EE53FF4FB8
:100B40008D918193AA15BB05D9F70F5F1F4FF02E2A
:100B50008981882319F00430110509F7F092BB0050
:100B600081E790E0B1D26091BB0070E080E090E05E
:100B7000BCD289E790E0A8D287B1806C87B98FE9B1
:100B800086B9BA9AC298F4DA8BE790E09DD280E0F9
:100B900090E0C7D4909304018093030100E010E03B
:100BA000C8018E5F9F4FBDD4F801E950FF4F91837C
:100BB00080830E5F1F4F0C30110591F778942FE062
:100BC00088E190E00FB6F894A89581BD0FBE21BDD5
:100BD000FFCF1F920F920FB60F921124FF920F9327
:100BE0001F932F933F934F935F936F937F938F93B5
:100BF0009F93AF93BF93EF93FF93DF93CF9300D077
:100C00000F92CDB7DEB76DD2F82E84E2F81669F4F4
:100C100081E08093BC001092BD008AE5E5E0F1E040
:100C2000DF011D928A95E9F755C0BDE0FB1609F07A
:100C300051C08091BC00813009F04CC01092BC00C2
:100C4000E6E0F1E000E010E080818A3259F0319670
:100C500091E0E935F90721F090E008271927F4CF52
:100C600000E010E085E091E06AE270E0FCD3FC0176
:100C70008181898385E091E06AE270E0F4D3FC0130
:100C800082818A831B82CE01019660E070E040E1A0
:100C900050E0B5D2202F30E026173707D9F485E091
:100CA00091E063E870E0F1D3009729F08FE591E0DF
:100CB00065E071E0E3D385E091E067E870E0E5D3BB
:100CC000009741F089EB91E065E071E0D7D381E0D6
:100CD0008093AA008091BC00813051F48091BD00C6
:100CE000E82FF0E0EB5FFE4FF0828F5F8093BD0056
:100CF0008091BD008A3510F01092BC000F900F90CB
:100D00000F90CF91DF91FF91EF91BF91AF919F91A4
:100D10008F917F916F915F914F913F912F911F9193
:100D20000F91FF900F900FBE0F901F901895FF929C
:100D30000F931F938C01F62E862FC2D1C801C4D108
:100D40008F2D8F5FBDD11F910F91FF9008950F934D
:100D50001F938B018068B4D1C801880F892F881F29
:100D6000990B9195ADD1802F8F77AAD11F910F91BB
:100D700008951F920F920FB60F921124EF92FF92D7
:100D80000F931F932F933F934F935F936F937F9393
:100D90008F939F93AF93BF93EF93FF93A895809109
:100DA000AA00882321F18091BE009091BF00A091FC
:100DB000C000B091C1008093AB009093AC00A093B1
:100DC000AD00B093AE0080E86FEF7FE0C0DFC29A65
:100DD0008FE591E060EAABDF89EB91E062EAA7DFA3
:100DE0001092AA00C29886E968E17CE3B0DF8091A6
:100DF000AB009091AC00A091AD00B091AE008057D7
:100E00009E4FAF4FBF4F2091BE003091BF00409129
:100E1000C0005091C10082179307A407B50708F4DA
:100E200030C18091AF009091B000A091B100B0911D
:100E3000B2000097A105B105A9F48BE890E044D178
:100E400087DB82DB8091BE009091BF00A091C00043
:100E5000B091C1008093AF009093B000A093B10017
:100E6000B093B20080918E002091AF003091B0001D
:100E70004091B1005091B200280F311D411D511D0C
:100E80008091BE009091BF00A091C000B091C100C0
:100E900082179307A407B50748F1ADD97B018C01F0
:100EA00084E90ED1D801C701FEE0B695A7959795C4
:100EB0008795FA95D1F704D1D801C701E7E0B69537
:100EC000A79597958795EA95D1F78F77F9D08E2DCD
:100ED0008F77F6D0F4D8BC0185E939DF1092AF00E6
:100EE0001092B0001092B1001092B2008091B30045
:100EF0009091B400A091B500B091B6000097A10503
:100F0000B105A1F480E060E070E076DC8091BE0085
:100F10009091BF00A091C000B091C1008093B30038
:100F20009093B400A093B500B093B60080918F0069
:100F300090919000A0E0B0E02091B3003091B40017
:100F40004091B5005091B600820F931FA41FB51FAA
:100F50002091BE003091BF004091C0005091C1006F
:100F6000281739074A075B0720F1EE2416C08E2D9B
:100F700090E0880F991F8C010E511F4F880F991F09
:100F8000880F991F8E539F4FB80197DBF80160813E
:100F900071818E2D8657DBDEE3948091BB00E816CD
:100FA00030F31092B3001092B4001092B50010927A
:100FB000B6008091B7009091B800A091B900B091AF
:100FC000BA000097A105B105B9F487B1807F90916F
:100FD000F600892B87B9369A8091BE009091BF00A8
:100FE000A091C000B091C1008093B7009093B80069
:100FF000A093B900B093BA008091910090919200B3
:10100000A0E0B0E02091B7003091B8004091B90065
:101010005091BA00820F931FA41FB51F2091BE00EC
:101020003091BF004091C0005091C100281739078E
:101030004A075B0730F14091F600E42FF0E0EE0F35
:10104000FF1FDF01A651BF4FE950FF4F20813181C3
:101050008D919C91BC01269FC001279F900D369FCA
:10106000900D112460E177E279D0842F8F576FDEE5
:101070008091F6008F5F8093F600863010F010921A
:10108000F600FF91EF91BF91AF919F918F917F916A
:101090006F915F914F913F912F911F910F91FF9011
:1010A000EF900F900FBE0F901F90189590BD89B9CB
:1010B00088E98AB986E880BD089590BD89B9089508
:1010C0005D9BFECF8CB9089520E0FC01E20FF11D7D
:1010D000E081EE2329F05D9BFECFECB92F5FF5CFC9
:1010E00008955F9BFECF8CB10895DF93CF93CDB76A
:1010F000DEB7A1970FB6F894DEBF0FBECDBFAE012D
:101100004F5F5F4F2AE030E0DAD1DEDFA1960FB605
:10111000F894DEBF0FBECDBFCF91DF910895629FDF
:10112000D001739FF001829FE00DF11D649FE00DDF
:10113000F11D929FF00D839FF00D749FF00D659F40
:10114000F00D9927729FB00DE11DF91F639FB00D3F
:10115000E11DF91FBD01CF0111240895AA1BBB1B7E
:1011600051E107C0AA1FBB1FA617B70710F0A61BA7
:10117000B70B881F991F5A95A9F780959095BC01C8
:10118000CD010895A1E21A2EAA1BBB1BFD010DC0C3
:10119000AA1FBB1FEE1FFF1FA217B307E407F50727
:1011A00020F0A21BB30BE40BF50B661F771F881F03
:1011B000991F1A9469F760957095809590959B0199
:1011C000AC01BD01CF01089597FB092E05260ED075
:1011D00057FD04D0D7DF0AD0001C38F45095409555
:1011E000309521953F4F4F4F5F4F0895F6F79095FB
:1011F0008095709561957F4F8F4F9F4F08952F92E7
:101200003F925F926F927F928F929F92AF92BF9226
:10121000CF92DF92EF92FF920F931F93CF93DF93C2
:101220008C011B01EA016115710519F0FB01918325
:101230008083209749F0CE010297839728F020E021
:1012400030E040E050E0F3C0F801A1908F018A2D1A
:1012500090E001D1892BC1F7FDE2AF1631F4F8011E
:10126000A1908F015524539407C0FBE2AF1619F4E7
:10127000F801A1908F015524209719F0C031D105B4
:10128000C1F4F0E3AF1679F4F8018081883711F0EA
:10129000883549F4F801A1800E5F1F4FF2E05F2A04
:1012A000C0E1D0E006C0209721F480E3A816E9F45D
:1012B00027C0C830D10531F1C930D10524F4C2307E
:1012C000D10531F50CC0CA30D10589F0C031D10546
:1012D000F9F4C12CD12CE12CB8E0FB2E27C0C12C95
:1012E000D12CE12CA0E4FA2E21C0CAE0D0E0FCEC25
:1012F000CF2EFCECDF2EFCECEF2EFCE0FF2E16C018
:10130000C8E0D0E0C12CD12CE12CE0E1FE2E0EC0D3
:101310009E01442737FD4095542F60E070E080E047
:1013200090E830DFC901DA016C017D0120E030E096
:1013300040E050E060E03E01882477FC8094982CE7
:1013400070EDB72EBA0CE9E0EB1570F48A2D8154DC
:101350008A3118F499ECB92E06C08A2D81568A314B
:1013600048F589EAB82EBA0C8B2D90E08C179D07B2
:101370000CF56F3FD9F0C216D306E406F506A8F0C7
:10138000CA01B901A4019301CADE9B01AC012B0D76
:10139000311D411D511D2130F0E03F07F0E04F07A6
:1013A000F0E85F0710F461E001C06FEFF801A19071
:1013B0008F01C6CF2114310481F0662331F0015032
:1013C0001040F1011183008308C051FE1AC0025081
:1013D0001040F1011183008314C067FF12C050FC5C
:1013E00005C02FEF3FEF4FEF5FE704C020E030E094
:1013F00040E050E882E290E0909314028093130260
:1014000016C050FE08C050954095309521953F4F2D
:101410004F4F5F4F0CC057FF0AC082E290E090939D
:101420001402809313022FEF3FEF4FEF5FE7B901F4
:10143000CA01DF91CF911F910F91FF90EF90DF9044
:10144000CF90BF90AF909F908F907F906F905F9064
:101450003F902F900895911169C0803219F0895002
:101460008550D0F70895FC018191861721F08823DB
:10147000D9F7992708953197CF010895FB01DC0131
:1014800001900D920020E1F70895FB015191552341
:10149000A9F0BF01DC014D9145174111E1F759F465
:1014A000CD010190002049F04D9140154111C9F343
:1014B000FB014111EFCF81E090E001970895FA011F
:1014C000CF93FF93EF9322303CF125322CF5C22FBE
:1014D000E894CA3049F497FB3EF490958095709556
:1014E00061957F4F8F4F9F4F2C2F332744275527D0
:1014F000FF93EF9347DEEF91FF91605D6A330CF04D
:10150000695D6193B901CA016050704080409040AC
:1015100059F716F4CDE2C19310828F919F91CF912C
:1015200008C0A8E1B0E042E050E015C09927882744
:101530000895DC01FC01672F71917723E1F7329761
:1015400004C07C916D9370836291AE17BF07C8F39E
:101550000895DC01CB01FC01E199FECF06C0FFBB81
:10156000EEBBE09A31960DB20D9241505040B8F763
:061570000895F894FFCF7E
:1015760053544152545744540A0053544152540A46
:101586000044414C4C41533A000A00424D50303819
:10159600350A0047474100524D4300533A00FFEEDB
:0415A600020100003E
:00000001FF
