:1000000012C02CC02BC02AC029C028C036C226C0AE
:1000100025C024C023C022C021C020C01FC01EC0D4
:100020001DC01CC01BC011241FBECFE5D4E0DEBF25
:10003000CDBF10E0A0E6B0E0E4E6F9E002C0059034
:100040000D92AE3AB107D9F710E0AEEAB0E001C0C8
:100050001D92AE3DB107E1F756D282C4D1CFDF93F6
:10006000CF9300D0CDB7DEB789836A838981882F8B
:1000700090E001960024969587950794969587952C
:100080000794982F802D982F8A81890F815044D111
:100090000F900F90CF91DF910895DF93CF9300D011
:1000A00000D0CDB7DEB78A836B834C838A816B81A6
:1000B000D6DF8B81898305C080E21BD189818F5F68
:1000C00089838981482F50E08B81282F30E08C81F3
:1000D000882F90E0820F931F481759076CF30F90F9
:1000E0000F900F900F90CF91DF910895DF93CF93F2
:1000F000CDB7DEB727970FB6F894DEBF0FBECDBFE2
:100100009F838E838E819F819E012F5F3F4FB90118
:100110004AE050E0F6D3CE01019661D027960FB6A3
:10012000F894DEBF0FBECDBFCF91DF910895DF936E
:10013000CF9300D000D000D0CDB7DEB79C838B83A7
:1001400081E089838B819C8124E630E0B901C5D3AD
:10015000CB018A838A81882321F4198280E2C9D065
:1001600003C08A81805DC5D08B819C8124E630E00C
:10017000B901B3D38A838A81882F90E09C838B83D3
:100180008A819AE0692F9DD38A831E828A8188237F
:1001900011F481E08E831D828981882311F491E01E
:1001A0009D838E819D818923882319F080E2A1D0CF
:1001B00003C08A81805D9DD08B819C812AE030E0E4
:1001C000B9018BD38A838A81805D93D026960FB63E
:1001D000F894DEBF0FBECDBFCF91DF910895DF93BE
:1001E000CF9300D000D0CDB7DEB79C838B831A822B
:1001F0008A81282F30E08B819C81FC01E20FF31F64
:10020000808189838981882341F0898172D08A81A4
:100210008F5F8A838981882359F70F900F900F9001
:100220000F90CF91DF910895DF93CF93CDB7DEB7D5
:10023000A8E3B0E0E8E3F0E0808181608C9381E0A6
:1002400090E00DD0A8E3B0E0E8E3F0E080818E7F9D
:100250008C938CE590E003D0CF91DF910895DF93EC
:10026000CF9300D0CDB7DEB79A83898389819A81F5
:100270008115910511F00197F1F79A8389830F9009
:100280000F90CF91DF910895DF93CF9300D0CDB73A
:10029000DEB78A838A81807F8983A2E3B0E0E2E3CC
:1002A000F0E080818F708C93A2E3B0E0E2E3F0E0B5
:1002B00090818981890F8C93B7DF8A818F708983C0
:1002C00089818295807F8983A2E3B0E0E2E3F0E058
:1002D00080818F708C93A2E3B0E0E2E3F0E0908144
:1002E0008981890F8C93A0DF0F900F90CF91DF91C0
:1002F0000895DF93CF930F92CDB7DEB78983A8E33C
:10030000B0E0E8E3F0E0808182608C938981BCDF1B
:100310000F90CF91DF910895DF93CF930F92CDB7D8
:10032000DEB78983A8E3B0E0E8E3F0E080818D7F69
:100330008C938981A9DF0F90CF91DF910895DF938E
:10034000CF93CDB7DEB7A1E3B0E0E1E3F0E0808189
:10035000806F8C93A7E3B0E0E7E3F0E080818260F8
:100360008C93A7E3B0E0E7E3F0E0808181608C93B9
:10037000A8E3B0E0E8E3F0E080818D7F8C93A8E310
:10038000B0E0E8E3F0E080818E7F8C9360EC7CE469
:1003900080E090E073D2A2E3B0E0E2E3F0E080819D
:1003A00080638C9341DF6CEF77E180E090E066D270
:1003B0003BDF8AE090E053DF37DFA2E3B0E0E2E327
:1003C000F0E080818F7E8C932FDF88E2A5DF86E0CE
:1003D000A3DF8CE0A1DF81E09FDF64E67EE080E0C8
:1003E00090E04CD2CF91DF910895DF93CF93CDB7BA
:1003F000DEB7EE970FB6F894DEBF0FBECDBFCE01CD
:1004000002969BAF8AAFE0E6F0E0FDAFECAFF8E319
:10041000FEAFECADFDAD00808CAD9DAD01969DAF06
:100420008CAFEAADFBAD00828AAD9BAD01969BAF70
:100430008AAF9EAD91509EAFEEADEE2351F719827B
:1004400010C08981805C68DF8981282F30E0CE016F
:100450000296FC01E20FF31F80814BDF89818F5FE1
:1004600089838981883368F3EE960FB6F894DEBFEE
:100470000FBECDBFCF91DF9108951F920F920FB69F
:100480000F9211242F933F934F935F936F937F931A
:100490008F939F93AF93BF93EF93FF93DF93CF938C
:1004A000CDB7DEB7FBD080EC37DF88E990E097DE90
:1004B00080EC32DF82E061E0D2DD8091D200909169
:1004C000D30014DE8AE315DF8091CE009091CF0037
:1004D0000DDE8AE30EDF8091D0009091D10006DE20
:1004E000CF91DF91FF91EF91BF91AF919F918F914C
:1004F0007F916F915F914F913F912F910F900FBE20
:100500000F901F901895DF93CF93CDB7DEB7A3D090
:1005100080ED90E09093C5008093C4008EEC90E055
:100520009093C7008093C60082ED90E09093C9003D
:100530008093C8008CEC90E09093CB008093CA002D
:100540001092B5001092B4008BE390E09093B70046
:100550008093B6001092B9001092B8008BE390E03F
:100560009093BB008093BA001092BD001092BC0023
:1005700087E190E09093BF008093BE00EAE4F0E052
:1005800080ED92E091838083A9E5B0E0E9E5F0E0B9
:10059000808180618C93EEE4F0E08DE08083CFDE9B
:1005A00089EA90E01CDE8BED92E09093D500809379
:1005B000D4007894FFCFDF93CF93CDB7DEB72797E2
:1005C0000FB6F894DEBF0FBECDBF9A8389836B83CD
:1005D0005D834C833F832E838B818130C1F4E9811D
:1005E000FA81808191810196E981FA8191838083EA
:1005F000E981FA81208131818E819F818217930761
:1006000034F4E981FA818C819D81918380838B818F
:100610008823C1F4E981FA81808191810197E98180
:10062000FA8191838083E981FA81208131818C81F3
:100630009D812817390734F4E981FA818E819F81E1
:100640009183808327960FB6F894DEBF0FBECDBF8F
:10065000CF91DF910895DF93CF93CDB7DEB7A2E3BB
:10066000B0E0E2E3F0E0808184608C93A2E3B0E04C
:10067000E2E3F0E0808188608C93A8E3B0E0E8E3F7
:10068000F0E0808180618C93A8E3B0E0E8E3F0E0E3
:10069000808180628C93CF91DF910895DF93CF9317
:1006A0000F92CDB7DEB71982E0E3F0E08081882FAA
:1006B00090E084709070009709F03FC088E08983D3
:1006C0008091B100883051F48091B0008F5F8093A9
:1006D000B0008091B000853008F4CCC0A091D40067
:1006E000B091D5008091B2009091B300880F991F0E
:1006F000FC01EC53FF4F608171818091B2009091B9
:10070000B300880F991F880F991FFC01EC54FF4F0D
:10071000408151818091B2009091B300880F991F60
:100720000196880F991FFC01EC54FF4F2081318105
:10073000CB0161E0FD01099592C0E0E3F0E080812A
:10074000882F90E088709070009709F03FC084E097
:1007500089838091B100843051F48091B0008F5F23
:100760008093B0008091B000853008F483C0A091E0
:10077000D400B091D5008091B2009091B300880F61
:10078000991FFC01EC53FF4F608171818091B20091
:100790009091B300880F991F880F991FFC01EC54AA
:1007A000FF4F408151818091B2009091B300880F3A
:1007B000991F0196880F991FFC01EC54FF4F20816F
:1007C0003181CB0160E0FD01099549C0E6E3F0E02D
:1007D0008081882F90E0807190700097E1F482E032
:1007E00089838091B100823049F48091B0008F5F9D
:1007F0008093B0008091B0008530E0F1E091D400AA
:10080000F091D50082EB90E061E041E050E024E01F
:1008100030E0099524C0E6E3F0E08081882F90E085
:10082000807290700097D9F481E089838091B10043
:10083000813049F48091B0008F5F8093B000809147
:10084000B0008530B8F0E091D400F091D50082EB93
:1008500090E060E041E050E024E030E009958981DB
:10086000882329F41092B1001092B00003C089814E
:100870008093B1000F90CF91DF910895DF93CF93D4
:1008800000D000D0CDB7DEB769837A838B839C8399
:1008900089819A81AB81BC8181159105A105B10542
:1008A00029F081509040A040B040D9F789839A83C5
:1008B000AB83BC830F900F900F900F90CF91DF917F
:1008C0000895991B79E004C0991F961708F0961BAC
:1008D000881F7A95C9F780950895AA1BBB1B51E123
:1008E00007C0AA1FBB1FA617B70710F0A61BB70BA0
:1008F000881F991F5A95A9F780959095BC01CD0145
:100900000895FB019F01E8944230BCF04532ACF4FD
:100910004A3029F497FB1EF4909581959F4F642FE0
:100920007727DBDF805D8A330CF0895D8193CB0113
:100930000097A9F716F45DE251931082C90100C037
:10094000DC01FC01672F71917723E1F7329704C036
:100950007C916D9370836291AE17BF07C8F30895C1
:04096000F894FFCF39
:100964000E0A0E000000000000040E15040400002E
:100974000007030508100000001008050307000025
:10098400000404150E04000000010214181C0000E9
:10099400001C181402010000202020202020202008
:0E09A4002020202020202020004D454E550010
:00000001FF
