:100000001EC038C037C036C035C034C036C832C054
:1000100031C030C02FC067C32DC02CC02BC02AC038
:1000200029C028C027C098C09AC0A1C0C0C0C8C0FD
:10003000D0C0F4C024C177C197C19FC1B3C11124FE
:100040001FBECFE5D4E0DEBFCDBF11E0A0E6B0E03B
:10005000E6E3F9E102C005900D92AC34B107D9F79F
:1000600011E0ACE4B1E001C01D92A83FB107E1F797
:10007000F8D85FCCC5CFDC01CB0181159105A10576
:10008000B10529F081509040A040B040D9F70895C3
:1000900090914F01992311F420E00DC0209175013A
:1000A000E5E7F1E08181819381E0EE38F807D1F74F
:1000B000915090934F01822F0895BC016070787F1A
:1000C0009C01207E377095E0369527959A95E1F74B
:1000D000EDEAF1E09291522F56955695569557704C
:1000E000472F487F452B4093AD01880F8E71229595
:1000F000220F207E282B20830895BC0160707E7F14
:100100009C01207E317045E0369527954A95E1F7B0
:10011000EFEAF1E09291522F56955695569551700F
:10012000472F4E7F452B4093AF018F712295220FB1
:10013000207E282B20830895CF93DF93EC018881C4
:1001400090E0FC01E05AF040EC30F10508F03EC1CF
:10015000ED5EFF4F298109942093680137C12F7309
:1001600080916901807C822B809369012FC130E0EE
:100170003695322F2227379527958A8190E0282BB4
:10018000392B922F9295990F990F907C809169014C
:100190008F73892B80936901832F8295880F880F35
:1001A000807C26952695282B20936A010FC12093E9
:1001B0006B0190E0917080916C018E7F892B06C05D
:1001C0002F73220F80916C018178822B80936C01B8
:1001D000FDC030E03695322F2227379527958A814A
:1001E00090E0282B392B922F9795992797958091FE
:1001F0006C018F77892B80936C01932F97959927AA
:100200009795822F8695892B80936D01932F9695D4
:10021000917080916E018E7F892BACC030E0369555
:10022000322F2227379527958A8190E0282B392B6A
:100230003170922F979599279795809170018F77BC
:10024000892B80937001932F979599279795822FEB
:100250008695892B80937101809172014091730181
:10026000942F9170821793070CF0B0C02093720105
:10027000832F81704E7F482B40937301A7C0422F7C
:1002800050E05695542F4427579547958A8190E022
:10029000482B592B5170942F9295990F907E8091F5
:1002A0006E018F71892B80936E01942F9695969590
:1002B000969560916F01607C752F7170872F829584
:1002C000880F807E692B682B60936F01362F3295E3
:1002D000369536953370E09170012E2F220F220F44
:1002E000822F832B2E2F2295269526952370922FD1
:1002F0009170841795070CF069C0842F8295880F40
:10030000880F807C6F73682B60936F01842F8695B4
:100310008695E0787295770F770F707CE82BE72B46
:10032000E093700153C030E03695322F2227379585
:1003300027958A8190E0282B392B922F990F809155
:1003400073018170892B80937301422F441F4427CE
:10035000441F809174018C7F932F9170990F842B8F
:10036000892B8093740132C02F70220F80916E010F
:10037000817E822B80936E0129C0922F9295990FD6
:10038000990F907C80E02A8130E03695322F222729
:1003900037952795822B932B2B8130E0822B932B43
:1003A000ACDE14C0922F9295990F990F907C80E04B
:1003B0002A8130E03695322F222737952795822BD8
:1003C000932B2B8130E0822B932B77DEDF91CF9123
:1003D0000895DC01EC91F0E0E85CFE4F11968C9101
:1003E000119787958827879512969C91892B8083F2
:1003F00008950F931F93FC0180810EE311E0080F15
:10040000111D818190E09695982F88279795879563
:10041000228130E0822B932B6AE070E013DAF8013E
:1004200060831F910F910895FC01818190E0969562
:10043000982F882797958795228130E0822B932BE0
:100440009093B1018093B00108959AE29093EA01EC
:1004500089E28093EB0188E28093EC019093ED01B7
:1004600086E28093EE0183E38093EF010895AF92DB
:10047000BF92CF92DF92EF92FF920F931F93DF9381
:10048000CF9300D000D0CDB7DEB77E010894E11C39
:10049000F11C0AE2E9E2AE2E78E2B72E66E2C62E41
:1004A00053E3D52E69C0F4DD182F882309F464C006
:1004B00087FF62C08983803891F4EADD8A83E8DDB2
:1004C0008B8390E02A8130E03695322F22273795B2
:1004D0002795822B932B9093B1018093B001812FAC
:1004E0008158863080F4D4DD8A83D2DD8B830093FB
:1004F000EA01A092EB01B092EC010093ED01C092F1
:10050000EE01D092EF01812F8459863070F4C0DD66
:100510008A83BEDD8B83E981F0E0E85CFE4F9A813F
:10052000979599279795982B9083812F8A58843097
:1005300030F4AEDD8A83ACDD8B83C7015ADF812FB7
:10054000805A8C30C8F4A4DD8A83123A61F0153ADF
:1005500051F0163A41F0173A31F0183A21F01A3AB0
:1005600011F01B3A11F494DD8B831A5A123010F4F7
:100570008FDD8C83C701E0DD80914F01863008F06C
:1005800092CF0F900F900F900F90CF91DF911F910E
:100590000F91FF90EF90DF90CF90BF90AF900895B4
:1005A000FC0190819D3721F481E0809351010895F1
:1005B00080915101813011F080E0089580E2982708
:1005C00090831092510180E008951092680110927A
:1005D0006B011092690110926A0110926C011092E5
:1005E0006D0110926E0180916F01807C80936F018C
:1005F000809170018F7780937001109271018091CA
:100600007301817080937301809174018C7F80935A
:100610007401109258011092590110925A011092CF
:10062000AD011092AC0181E28093AE018EE3809324
:10063000AF011092C8011092C9011092CA01109224
:10064000CB011092EA011092EB011092EC01109292
:10065000ED011092EE011092EF010895582F409194
:100660006401842F8F7021E030E002C0220F331F1D
:100670008A95E2F7E52FF0E0EE0FFF1FE051FE4F05
:100680008081918128233923232B11F0A99A01C05D
:10069000A998842F8F5F80936401803121F082308C
:1006A00039F4552329F4109264018FEF809363018C
:1006B000089581E098E09093F1018093F0018FE03C
:1006C00090E09093F3018093F20183E590E09093A2
:1006D000F5018093F40183E591E09093F701809315
:1006E000F601A19A08951F920F920FB60F9211244E
:1006F0002F933F934F935F936F937F938F939F932A
:10070000AF93BF93EF93FF93DF93CF930F92CDB748
:10071000DEB722D8982F89838AE0809350019E3FCC
:1007200061F4809165018E37B9F481E080935301C3
:100730001092D50110924E010FC09D3F69F4809137
:1007400065018E3749F482E0809353011092D50100
:1007500010924D011092520180915301813061F548
:100760008091D5018330A8F4CE01019619DF88234A
:1007700081F490914E01E92FF0E0EE52FE4F898115
:1007800080839F5F90934E018091D5018F5F80930E
:10079000D50189818E3721F08091D501833061F4B4
:1007A0008091D201809358018091D30180935901A7
:1007B0008091D40180935A0180915301823081F558
:1007C00080914D01813019F4898180935201898192
:1007D0008E3741F0909152018091D501981739F4EC
:1007E000992329F044DE10924D011092530180911B
:1007F0004D018330A8F0CE010196D2DE882381F42A
:1008000090914F01E92FF0E0EB58FE4F89818083F2
:100810009F5F90934F018091D5018F5F8093D501A9
:1008200080914D018F5F80934D0189818093650197
:100830000F90CF91DF91FF91EF91BF91AF919F9179
:100840008F917F916F915F914F913F912F910F9079
:100850000FBE0F901F901895615090E00196B6E082
:10086000880F991FBA95E1F7860F40D68091AE01A7
:100870008F7190E00A971CF480E090E0CDD68091D3
:10088000AE018F7190E0C8D68EE2E5D52091AE0121
:100890002295269527708091AF018170880F880F6F
:1008A000880F822B90E00A971CF480E090E0B4D689
:1008B0009091AE019295969597708091AF0181705D
:1008C000880F880F880F892B90E0A6D68EE2C3D5BB
:1008D0008091AF01869590E08454984F9DD680E238
:1008E000BAD58091AD0186958695869590E00A9758
:1008F0001CF480E090E090D68091AD0186958695BD
:10090000869590E089D68AE3A6D52091AC01229500
:10091000269527708091AD018770880F880F880F0A
:10092000822B90E00A971CF480E090E075D69091BD
:10093000AC019295969597708091AD018770880F64
:10094000880F880F892B90E067D608951F93182F82
:10095000842F815070E06F5F7F4F96E0660F771FA6
:100960009A95E1F7860FC2D5812F6AE04BD790E0C8
:1009700053D68EE270D5812F6AE044D7892F90E05C
:100980004BD61F91089580E8B1D580E690E078D5E8
:1009900080E8ACD58091B2019091B301099719F428
:1009A00081E790E002C080E890E06AD580EC9ED5B7
:1009B00080E690E065D580EC99D58CE34CD58091AC
:1009C0005F01909160018A3091051CF480E090E015
:1009D00004C06AE070E036D7CB011ED68EE23BD56C
:1009E00080915F01909160016AE070E02BD714D68E
:1009F00086E531D587EC7AD58BE890E041D58091BA
:100A000061019091620108D62091610130916201EB
:100A10001216130644F48091B2019091B3010A9723
:100A200011F420936301089580E860D580E690E09A
:100A300027D580E85BD58091B2019091B3010797EB
:100A400019F48EE890E002C080E890E019D580ECBF
:100A50004DD580E690E014D580EC48D58CE3FBD4EE
:100A600080915B0190915C018A3091051CF480E0DB
:100A700090E004C06AE070E0E5D6CB01CDD58EE20F
:100A8000EAD480915B0190915C016AE070E0DAD673
:100A9000C3D586E5E0D487EC29D58BE890E0F0D487
:100AA00080915D0190915E01B7D520915D013091FB
:100AB0005E011216130644F48091B2019091B301C5
:100AC000089711F420936301089580E80FD580E61C
:100AD00090E0D6D480E80AD58CE990E0D1D480ECBF
:100AE00005D580E690E0CCD480EC00D58091500113
:100AF000882321F082E061E0AFDE089586EA90E08D
:100B0000BFD40895CF92DF92EF920F9380E8EED496
:100B100040E6C42E40E0D42EC601B2D480E8E6D42C
:100B200081EB90E0ADD4909173018091720191704E
:100B300060E241E025E001E03AE0E32E8DD58BEB69
:100B400090E09ED480ECD2D4C6019AD480ECCED46E
:100B50008DEB90E095D420916F01229526952695F6
:100B6000237080917001982F929596959695937029
:100B7000880F880F822B917060E241E023E002E051
:100B80006BD587EC90E07CD40F91EF90DF90CF9005
:100B90000895AF92BF92CF92DF92EF92FF920F93A0
:100BA0001F93182F80E8A2D480E690E069D480E8F3
:100BB0009DD48CEC90E064D486E898D480ED90E0ED
:100BC0005FD48CE893D484ED90E05AD480EC8ED43A
:100BD00080E690E055D480EC89D4809158011123AF
:100BE00091F490E060E241E023E002E0EE24E3943F
:100BF00033D58091590190E060E241E023E077E055
:100C0000E72E2AD55FC0682F70E080E090E02AE6EA
:100C100039EC40E050E0D7D55B016C0120E432E4D0
:100C20004FE050E022D6E22E822F90E0F5D48EE203
:100C300012D4FF2400E010E0C801B70120EC3DEB26
:100C400040EF5FEFC0D56A0D7B1D8C1D9D1D20EA16
:100C500036E841E050E009D6822F90E0DDD486E509
:100C6000FAD386EC43D46091590170E080E090E0C3
:100C70002AE639EC40E050E0A6D55B016C0120E4A7
:100C800032E44FE050E0F1D5E22E822F90E0C4D460
:100C90008EE2E1D3FF2400E010E0C801B70120ECB0
:100CA0003DEB40EF5FEF8FD56A0D7B1D8C1D9D1DC9
:100CB00020EA36E841E050E0D8D5822F90E0ACD46D
:100CC00086E5C9D380915A0190E060E241E023E0DB
:100CD00002E05EE0E52EC0D41F910F91FF90EF90EF
:100CE000DF90CF90BF90AF900895CF92DF92EF92B8
:100CF0000F93082FE62E8091EB01C090EA01DD24CE
:100D0000C80ED11C8091EC01C80ED11C8091ED0160
:100D1000C80ED11C8091EE01C80ED11CC6016AE03C
:100D200070E07CD5CB0160E241E022E095D48EE218
:100D300092D3C6016AE070E071D56ED486E58BD39C
:100D40000F91EF90DF90CF9008950F931F9380E85D
:100D5000CDD300E610E0C80193D380E8C7D380EC80
:100D6000C5D3C8018DD380ECC1D38091EA0161E085
:100D700041E0ECDD8091EB0161E045E0E7DD809151
:100D8000EC0161E049E0E2DD8091ED0161E04DE0E0
:100D9000DDDD86E560D38091EE0162E041E0D6DDE5
:100DA0008091EF0162E045E0D1DD82E06CE09DDF03
:100DB0001F910F9108950F931F93CF93DF9380E8B6
:100DC00095D380E690E05CD380E890D3C0E0D0E09B
:100DD000FE01E853FE4F808187FD03C0082F1BE210
:100DE00003C0082F01951DE2CC2311F080E233D31C
:100DF000812F31D3802F90E00FD42196C330D105BD
:100E000039F780E028D383E426D380EC6FD380E6E3
:100E100090E036D380EC6AD389ED90E031D382E064
:100E200063E063DF8AEC62D38CED90E029D380919C
:100E3000EF0162E04DE08ADD86E50DD3DF91CF91D1
:100E40001F910F910895CF92DF92EF920F9380E858
:100E50004DD3B0E6CB2EB0E0DB2EC60111D380E837
:100E600045D320916E0122952695277080916F01C0
:100E7000982F929596959770880F880F880F822BE0
:100E8000917060E241E023E001E0EE24E394E4D3DA
:100E900087EC90E0F5D220917001221F2227221FBB
:100EA00090917101892F880F822B991F9927991F83
:100EB00060E241E024E0ACE0EA2ECED38DE6CBD276
:100EC00080EC14D3C601DCD280EC10D320917301E6
:100ED000269580917401982F9695879588278795F8
:100EE000822B917060E241E023E002E0F2E0EF2E1D
:100EF000B3D380E0B0D280916E0186958F7090E080
:100F000060E241E022E0ECE0EE2EA6D38FED90E02F
:100F1000B7D20F91EF90DF90CF900895EF92FF92AC
:100F20000F93CF93DF9380E8E1D280E690E0A8D2E0
:100F300080E8DCD2809168018A3540F48EE48BD25F
:100F400080E289D28091680190E00AC083E583D273
:100F500080E281D22091680180E091E0821B9109BA
:100F60005BD380E078D2809169018F7390E054D395
:100F70008EE271D2209169012295269526952370E3
:100F800090916A01892F880F880F822B92959695F0
:100F90009695937041D380ECA9D280E690E070D210
:100FA00080ECA4D2C0916B0180916C017E018170B4
:100FB000F82EE701C43BD10518F485E44CD208C0F3
:100FC00087E549D287E691E09C012E193F09E901A6
:100FD000C436D10510F480E33ED2CE011DD380E0AB
:100FE0003AD280916C0186958F7390E015D38EE292
:100FF00032D220916C01221F2227221F80916D0185
:10100000382F331F3327331F90916E019170990F42
:10101000880F822B932B00D320917001221F22274F
:10102000221F90917101892F880F822B991F992778
:10103000991F60E241E024E001E05DE0E52E0CD381
:1010400020916E0122952695277080916F01982F2F
:10105000929596959770880F880F880F822B9170C4
:1010600060E241E023E002E03EE0E32EF5D2DF91D2
:10107000CF910F91FF90EF9008951F920F920FB6AE
:101080000F9211242F933F934F935F936F937F930E
:101090008F939F93AF93BF93EF93FF9378941EBC6E
:1010A000809163018F3F09F0D9DA80915001882344
:1010B00019F48BDAA89A04C085B391E0892785BB1F
:1010C00002D18091B2019091B301892B09F4FDDC2A
:1010D0008091B2019091B301019709F41FDF8091D3
:1010E000B2019091B301029709F4ADDE8091B20193
:1010F0009091B301039709F45EDE8091B201909163
:10110000B301049709F421DE8091B2019091B301FB
:10111000059751F480914C0164E174D3993010F437
:1011200080E001C081E035DD8091B2019091B30192
:10113000069709F4E7DC8091B2019091B30107971B
:10114000029708F471DC8091B2019091B301099784
:10115000029708F418DC80914C018F5F80934C015A
:101160008DE08EBD80915001882319F081508093CD
:101170005001FF91EF91BF91AF919F918F917F911E
:101180006F915F914F913F912F910F900FBE0F90F4
:101190001F90189501D281E0A9D164E67EE080E03D
:1011A00090E069D780E8A2D18CE990E069D1C4D100
:1011B0008FE290E0B6D28EB582608EBD80ED92E077
:1011C0009BBD8ABD89B7806189BF8DE08EBDA09A25
:1011D00085B7826085BF8BB780648BBF929A829AF5
:1011E00063D08BE591E09093C1018093C0018DE5C0
:1011F00091E09093C3018093C2018FE591E09093B9
:10120000C5018093C40181E691E09093C70180936A
:10121000C60110929D0110929C018AE290E0909389
:101220009F0180939E011092A1011092A00124E0E1
:1012300030E03093A3012093A2011092A5011092F7
:10124000A4018CEF90E09093A7018093A6011092E7
:10125000A9011092A8013093AB012093AA0129DAC9
:10126000089598DF7894FFCFFC01613059F48081B4
:101270009181019691838083281739077CF45183EB
:1012800040830895662351F4808191810197918371
:1012900080838417950714F4318320830895809107
:1012A000B2019091B30108951092B3011092B2016E
:1012B000C29AC39AC49AC59A84E399E09093D701DD
:1012C0008093D6010895B2992FC08091670188302C
:1012D00041F4809166018F5F80936601853008F448
:1012E00092C0E091B201F091B3013197DF01AA0FF2
:1012F000BB1FEE0FFF1FEE0FFF1FEC57FE4F40818D
:101300005181FD01EE0FFF1FEA57FE4F2081318111
:10131000E091D601F091D701AC54BE4F8D919C91D4
:1013200061E0099588E066C0B3992FC0809167019C
:10133000843041F4809166018F5F8093660185302F
:1013400008F461C0E091B201F091B3013197DF017F
:10135000AA0FBB1FEE0FFF1FEE0FFF1FEC57FE4F34
:1013600040815181FD01EE0FFF1FEA57FE4F2081A2
:101370003181E091D601F091D701AC54BE4F8D91EF
:101380009C9160E0099584E035C0B49919C08091C2
:101390006701823039F4809166018F5F8093660126
:1013A000853088F1E091D601F091D70182EB91E090
:1013B00061E040E050E02AE030E0099582E01AC0A8
:1013C000B5991DC080916701813039F48091660123
:1013D0008F5F809366018530B0F0E091D601F09187
:1013E000D70182EB91E060E040E050E02AE030E09D
:1013F000099581E01092630180936701089510922E
:101400006701109266010895C09A81E090E081150D
:10141000910511F00197F1F7C0988CE590E08115E6
:10142000910511F00197F1F708951F93182F82B3DA
:101430008F7082BB92B3812F807F890F82BBE4DFE4
:1014400082B38F7082BB82B31295107F810F82BBF3
:10145000DBDF1F910895C19AE8DF08951F93CF93B2
:10146000DF93EC0110E0FE01E10FF11D8491882370
:1014700019F0F1DF1F5FF7CFDF91CF911F91089532
:101480001F93CF93DF93EC0110E0FE01E10FF11DFC
:101490008081882319F0DFDF1F5FF7CFDF91CF91C5
:1014A0001F9108951F93182F64E6ACD1882321F46F
:1014B00080E2D1DF20E003C0805DCDDF21E0812F1D
:1014C00064E6A0D1192F892F6AE09CD1882321F4EA
:1014D000222311F480E201C0805DBDDF812F6AE02C
:1014E00091D1892F805DB7DF1F910895C1989DDF4D
:1014F00008950F931F93CF93DF93162F042F262F5A
:10150000215090E0019636E0880F991F3A95E1F757
:10151000820FECDFC12FD0E0C00FD11D03C080E2ED
:101520009ADF1F5F812F90E08C179D07C4F3DF9136
:10153000CF911F910F910895EF92FF921F93DF9328
:10154000CF93CDB7DEB7E8970FB6F894DEBF0FBEE6
:10155000CDBFDE011196E3E1F1E088E301900D9249
:101560008150E1F77E010894E11CF11C10E4812F09
:10157000BDDFF70181917F016EDF1F5F1837B9F77B
:10158000E8960FB6F894DEBF0FBECDBFCF91DF91C6
:101590001F91FF90EF90089581B3806F81BBB99A3E
:1015A000B89AC198C09860EC7CE480E090E063D584
:1015B00082B3806382BB28DF6CEF77E180E090E04C
:1015C0005AD522DF8AE090E08115910511F001974C
:1015D000F1F71ADF949818DF88E288DF86E086DF6B
:1015E0008CE084DF81E082DF64E67EE080E090E0F2
:1015F00042D508951F93CF93DF93EC0110E0CE0105
:10160000810F911D7ED1882319F025DF1F5FF7CF51
:10161000DF91CF911F9108950F931F93DF93CF9385
:10162000CDB7DEB727970FB6F894DEBF0FBECDBF9C
:101630008E010F5F1F4FB8014AE050E043D1C8014F
:101640001FDF27960FB6F894DEBF0FBECDBFCF9138
:10165000DF911F910F910895BF92CF92DF92EF9289
:10166000FF920F931F93DF93CF93CDB7DEB72897E9
:101670000FB6F894DEBF0FBECDBFB62E142FC22E0C
:10168000D02E0E2D62E0E62EF12CEC0EFD1EB701E1
:101690004AE050E017D1113091F5C70160E070E0E9
:1016A00006D18E19898301508D2D90E0019656E068
:1016B000880F991F5A95E1F7800F18DF10E0EC2C86
:1016C000FF2403C08B2DC7DE1F5F8981212F30E0EF
:1016D000A701481B510924173507A4F310E042E085
:1016E000E42EF12CEC0EFD1E06C0F701E10FF11DFA
:1016F0008081B1DE1F5F89811817B8F302C0C7016E
:10170000BFDE28960FB6F894DEBF0FBECDBFCF91D7
:10171000DF911F910F91FF90EF90DF90CF90BF90DE
:10172000089590BD89B988E98AB986E880BD089591
:1017300090BD89B908955D9BFECF8CB9089520E0D6
:10174000FC01E20FF11D3491332329F05D9BFECFA4
:101750003CB92F5FF5CF08955F9BFECF8CB1089504
:101760001F93CF93DF93EC0110E0FE01E10FF11D19
:10177000E081EE2351F05D9BFECFECB968EF7FE294
:1017800080E090E078D41F5FF0CFDF91CF911F9180
:101790000895DF93CF93CDB7DEB761970FB6F89476
:1017A000DEBF0FBECDBFBE016F5F7F4F4AE050E08E
:1017B00089D0D6DF61960FB6F894DEBF0FBECDBFDD
:1017C000CF91DF910895629FD001739FF001829FB6
:1017D000E00DF11D649FE00DF11D929FF00D839FC0
:1017E000F00D749FF00D659FF00D9927729FB00D5D
:1017F000E11DF91F639FB00DE11DF91FBD01CF0170
:1018000011240895991B79E004C0991F961708F0D8
:10181000961B881F7A95C9F780950895AA1BBB1B54
:1018200051E107C0AA1FBB1FA617B70710F0A61BE0
:10183000B70B881F991F5A95A9F780959095BC0101
:10184000CD01089597FB092E07260AD077FD04D015
:10185000E5DF06D000201AF4709561957F4F08955A
:10186000F6F7909581959F4F0895A1E21A2EAA1B35
:10187000BB1BFD010DC0AA1FBB1FEE1FFF1FA21740
:10188000B307E407F50720F0A21BB30BE40BF50B3D
:10189000661F771F881F991F1A9469F760957095C6
:1018A000809590959B01AC01BD01CF010895FC018D
:1018B0008191861721F08823D9F7992708953197C8
:1018C000CF010895FB019F01E8944230BCF04532FE
:1018D000ACF44A3029F497FB1EF4909581959F4F04
:1018E000642F77279BDF805D8A330CF0895D8193BD
:1018F000CB010097A9F716F45DE251931082C9015C
:1019000008C0E199FECF9FBB8EBBE09A99278DB3AB
:101910000895DC01FC01672F71917723E1F732977D
:1019200004C07C916D9370836291AE17BF07C8F3BA
:061930000895F894FFCFBA
:1019360020202020202020202020202020202020A1
:10194600004E617065746920626174657269650034
:1019560054797020616C61726D7500413A004E6178
:101966007065746920636C616E656B0044626F78A4
:101976002076312E31005A61646E61206461746193
:10198600004D617820767973203A006D004D6178BC
:1019960020727963683A006B6D2F6800414431000C
:1019A600414432005253534900623A00703A007380
:1019B6006174008002A001A101A202A301A401A5F5
:1019C60002A602A702A802A901AA03AB038A028BF8
:1019D600028C028D028102820283028402850286C3
:1019E6000219040E0A0E000000000000040E150481
:1019F6000400000007030508100000001008050396
:101A0600070000000404150E04000000010214186B
:0C1A16001C0000001C181402010000005D
:00000001FF
